:1000000031C1000060C100005EC100005CC10000A1
:100010005AC1000058C1000056C1000054C1000080
:1000200052C1000050C100004EC100004CC1000090
:100030004AC1000048C1000046C1000044C10000A0
:1000400042C1000040C100003EC100003CC10000B0
:100050003AC1000038C1000036C100007AC6000075
:1000600032C100000C94E90A0C941F0B2CC1000053
:100070002AC1000028C1000026C1000024C10000E0
:1000800022C1000020C100001EC100001CC10000F0
:100090001AC1000018C1000016C1000014C1000000
:1000A00012C1000010C100000EC100000CC1000010
:1000B0000AC1000008C1000006C1000004C1000020
:1000C00002C1000000C10000FEC00000FCC0000032
:1000D000FAC00000F8C00000F6C00000F4C0000044
:1000E000F2C000004002250228022B022E0231023B
:1000F000340237023A023D02F107F607FB07050812
:100100000F08880819082108290833083D084708FE
:100110005608600888086A0874087E08A908AC08B0
:100120009B089F08A508E308B008B408BA08BE08F1
:10013000C208C808CC08D008E308D608DA08DE08E8
:1001400000000A0B02090C0D0E0807030401000051
:10015000000000000000000000000000000000009F
:10016000000000000000000000000000121110005C
:10017000000000000000000000000000000000007F
:10018000000000000000010210202008081020409C
:10019000102040800201020108040201010204084B
:1001A00010204080804020100804020180040201D9
:1001B0008040201008040201080402010102040822
:1001C000102040800102040810204080050505052C
:1001D000070508080808020202020A0A08080404BF
:1001E00004040101010101010101030303030303ED
:1001F0000303040707070C0C0C0C0C0C0C0C02027C
:10020000020206060606060606060B0B0B0B0B0B78
:100210000B0B000020002300260029002C002F00DB
:100220003200000100000301060109010000220064
:10023000250028002B002E003100340002010000B0
:10024000050108010B0100002100240027002A00FD
:100250002D003000330001010000040107010A01F4
:100260009503510B11241FBECFEFD1E2DEBFCDBFEE
:1002700000E00CBF12E0A0E0B2E0E8E0FBE100E04B
:100280000BBF02C007900D92A634B107D9F723E047
:10029000A6E4B2E001C01D92AF35B207E1F712E06B
:1002A000C4E6D2E000E006C022970109FE010BBFC0
:1002B0000E946F0DC036D10780E00807A9F70E94A1
:1002C000950B0C94820D9CCEDC01ED91FC9101907C
:1002D000F081E02D1994AF92BF92CF92DF92EF920E
:1002E000FF920F931F93CF93DF9361E080910A02F7
:1002F0006BD761E08091080267D7C6E0D2E061E089
:10030000888162D761E0809104025ED726E040E8F0
:1003100055E260E070E082EC92E00E94890A64EFAE
:1003200071E080E090E08ED561E0888186D786E339
:1003300010D6BC01882777FD8095982F1F921F92B9
:100340001F9227E82F9329E7A22EBB24BA94CB2C27
:10035000DB2CEE24EA9413E0F12E00E010E020E024
:1003600030E0A9010E94CC0C1F921F921F9221EE37
:100370002F9343EDA42EBB24BA94CB2CDB2C17E88F
:10038000E12EF12C00E010E029E73FEF4FEF5FEFA7
:100390000E94CC0C70934702609346028DB79EB7C3
:1003A00008960FB6F8949EBF0FBE8DBFDF91CF9118
:1003B0001F910F91FF90EF90DF90CF90BF90AF9083
:1003C00008954F925F926F927F929F92AF92BF92E9
:1003D000CF92DF92EF92FF920F931F93CF93DF9311
:1003E00000D01F92CDB7DEB78AE492E08CD4209182
:1003F000480230914902253B310524F01092490210
:1004000010924802882309F454C020914802309188
:100410004902833261F4253B310524F430934702CD
:1004200020934602109249021092480242C0992736
:1004300087FD9095A92FB92FFC01F097EA30F105BF
:1004400008F5EE58FF4F0C945F0D01E010E01AC064
:1004500002E010E017C003E010E014C004E010E078
:1004600011C005E010E00EC006E010E00BC007E090
:1004700010E008C008E010E005C009E010E002C08C
:1004800000E010E0121613062CF0109349020093BE
:1004900048020FC02436310564F44AE0429FC0018F
:1004A000439F900D1124800F911F909349028093D8
:1004B000480286E34ED52C0187E34BD56EEF70E002
:1004C00082EC92E001DF61E070E082EC92E0FCDE21
:1004D0006AE070E080E090E0B5D460E272E082EC27
:1004E00092E00E94F80B662457FC6094762C1F92D1
:1004F0001F921F92A7E89A2E9F92B9E7AB2EBB24BA
:10050000BA94CB2CDB2CEE24EA9413E0F12E00E01D
:1005100010E020E030E0A901C301B2010E94CC0C40
:100520001F921F921F9221EE2F9323EDA22EBB2428
:10053000BA94CB2CDB2C17E8E12EF12C00E010E074
:1005400029E73FEF4FEF5FEF0E94CC0CAB01BC01FE
:100550002AE030E082EC92E00E94BC0C6EEF70E08A
:1005600082EC92E0B1DE60EC70E082EC92E0ACDE16
:100570006AE070E080E090E065D467E272E082ECCF
:1005800092E00E94F80B60914602709147024AE0A7
:1005900050E082EC92E00E94A60C609148027091BB
:1005A00049024AE050E082EC92E00E94A60C65EA23
:1005B00070E080E090E046D460914602709147027E
:1005C000882777FD8095982F1F921F921F922AE50A
:1005D0002F9346EAA42EBB24BA94CB2CDB2C14EB2D
:1005E000E12EF12C00E010E020E030E0A9010E94B3
:1005F000CC0C69837A838B839C831F921F921F92FA
:100600009F9269E7A62EBB24BA94CB2CDB2CEE2458
:10061000EA9413E0F12E00E010E020E030E0A901C0
:10062000C301B2010E94CC0C29813A81261B370BF1
:10063000B901882777FD8095982F1F921F921F92EE
:100640002FEF2F93A12CB12C650120E030E0A90100
:100650000E94CC0C2AE0269F8001279F100D1124B8
:100660000FB6F894DEBF0FBECDBF0F3F110509F0E6
:10067000FCF401309FEF19071CF017FF15C002C0F2
:1006800001E01FEF60E070E080910A0287D417FF5D
:1006900002C00D5F1F4FB8017595679575956795F9
:1006A00071956195710910C00115110519F102C00C
:1006B0000FEF10E0B8017595679575956795809176
:1006C0000A026CD460E070E0809108020F900F90F5
:1006D0000F900F90DF91CF911F910F91FF90EF90AE
:1006E000DF90CF90BF90AF909F907F906F905F9082
:1006F0004F9054C461E080910A029FD561E08091DF
:1007000008020F900F900F900F90DF91CF911F91E3
:100710000F91FF90EF90DF90CF90BF90AF909F90A0
:100720007F906F905F904F9088C5EF920F93E3E0BA
:10073000EE2E04E02CE032E04FE052E063E172E0A4
:100740008AE492E00BD00F91EF900895862F642FEA
:100750003BC5862F642F71C5862FA4C54F925F922B
:100760006F927F928F929F92AF92BF92CF92DF92C1
:10077000EF920F93CF93DF93EC014B013A015901B4
:100780000296E1D280E392E0998388836E018CE146
:10079000C80ED11C26018CE3480E511CC601D3D2D1
:1007A00086E0C80ED11CC414D504C1F7FE01EE5971
:1007B000FF4F718260823296B182A08232960083AE
:1007C0003196E08237979182808238968AE090E075
:1007D00091838083329684EF91E091838083339676
:1007E0001182108271971082118212821382C45971
:1007F000DF4F1882DF91CF910F91EF90DF90CF9074
:10080000BF90AF909F908F907F906F905F904F9030
:1008100008952F923F924F925F926F927F928F92A4
:100820009F92AF92BF92CF92DF92EF92FF920F937F
:100830001F93CF93DF93CDB7DEB728970FB6F89409
:10084000DEBF0FBECDBF98878F83F12C4C0186E6AB
:10085000880E911C0F8118850E591F4FD4018C9161
:10086000F816A0F4AF81B8858D919C91F801A08114
:10087000B181AF0DB11DFC012081318142E06C914D
:100880008F819885F9011995F394E8CF512CEF8168
:10089000F885E959FF4FFA83E9830F8118850C59D0
:1008A0001F4FC12CD12C7601C3948F8198858E590E
:1008B0009F4F9C838B83A981BA818C91581608F035
:1008C00088C0A52CB12CAF81B8858D919C91F80181
:1008D000A081B181AA0DBB1DFC012081318141E0C5
:1008E0006C918F819885F9011995AF81B8858D91AB
:1008F0009C91F801A081B181AA0DBB1DFC01228150
:10090000338140E06C918F819885F9011995D70169
:10091000C601052C04C0880F991FAA1FBB1F0A948B
:10092000D2F79C011C0120943094412CD4018C916D
:10093000EF81F88540815181481648F5642C712C6F
:10094000EB81FC81A081B181A60DB71DFA01448124
:1009500055816C918F8198852D833E83FA0119957D
:10096000660C771C2D813E81EF81F885E60DF71D21
:10097000892B29F480859185822B932B04C0808557
:10098000918582219321918780874394CFCFF8016D
:10099000A081B181AA0DBB1DFA012281338141E002
:1009A0006C918F819885F9011995AF81B8858D91EA
:1009B0009C91F801A081B181AA0DBB1DFC01208191
:1009C000318140E06C918F819885F901199553949C
:1009D00072CF28960FB6F894DEBF0FBECDBFDF9161
:1009E000CF911F910F91FF90EF90DF90CF90BF902C
:1009F000AF909F908F907F906F905F904F903F90BF
:100A00002F900895FC0180E090E0258D368D26170B
:100A1000370739F0019636968A309105B1F78FEF96
:100A20009FEF0895DC0126E0629FA00DB11D112407
:100A300090965C934E935F9721E091962C939197BB
:100A4000FC01E459FF4F208131960190F081E02DA7
:100A5000222331F0309749F0611107C0DC0102C058
:100A6000309719F05C968C9119940895CF92DF928B
:100A7000FF920F931F93CF93DF931F92CDB7DEB7F3
:100A80006C01F62EFC0186E0689FE00DF11D11243B
:100A900011A2878D90A181309105E1F01CF4892B82
:100AA00051F042C08230910581F1039709F03CC0BA
:100AB00040E050E02EC04423B9F141E050E0C601CF
:100AC000B1DF91D1F601E85AFF4F608371838283D1
:100AD00093832AC0498387D1F601E85AFF4F0081EA
:100AE000118122813381601B710B820B930B7296F3
:100AF0000081118120E030E049810617170728079F
:100B0000390718F442E050E004C041110DC043E041
:100B100050E06F2DC6010F90DF91CF911F910F9183
:100B2000FF90DF90CF907ECF0F90DF91CF911F91FC
:100B30000F91FF90DF90CF9008952F923F924F92A8
:100B40005F926F927F928F929F92AF92BF92CF925D
:100B5000DF92EF92FF920F931F93CF93DF931F9239
:100B6000CDB7DEB71C01FC014AE08FEF9FEF278D68
:100B700030A1232B21F4148E968F858F11A2415022
:100B800036964111F4CF712C610126E6C20ED11CBC
:100B9000510187E6A80EB11C4101A0E68A0E911C06
:100BA00046E0442ED6018C91781608F053C0612C93
:100BB0008101070D111D070D111D085F1F4FF50164
:100BC000E0806E1408F044C0F80140815181062C89
:100BD00002C0569547950A94E2F741707E9C7001D9
:100BE0001124E60CF11CD401ED91FC91EE0DFF1DDA
:100BF0005080B701C101498305DF498197FD02C0DB
:100C0000682F1BC0019611F5442301F180E090E0AC
:100C100060E070E0F101E80FF91F248D211110C090
:100C2000469EF001479EF00D1124E20DF31D548EF7
:100C3000F68EE58E10A2178E41E0C10117DF06C0C7
:100C40006F5F7F4F06966A30710521F76394B7CFC7
:100C50007394A8CF20E030E080E0F101E20FF31FB1
:100C600091A1911181E02A5F3F4F2C333105A9F703
:100C70000F90DF91CF911F910F91FF90EF90DF9038
:100C8000CF90BF90AF909F908F907F906F905F902C
:100C90004F903F902F900895CF92DF92EF92FF9266
:100CA0000F931F93CF93DF938C019DD0E801C45A1B
:100CB000DF4FC880D980EA80FB806C197D098E09DE
:100CC0009F09F801E859FF4FC080D180E12CF12C39
:100CD000C616D706E806F90658F4C8019ADDC80119
:100CE0002CDF182F80D0688379838A839B8301C08F
:100CF00010E0812FDF91CF911F910F91FF90EF9026
:100D0000DF90CF9008950F931F93CF93DF93EC0163
:100D10008C0104591F4F81E0F8018083CE01BCDFB4
:100D2000882349F089A1882331F08F8D98A10197FC
:100D300011F48C8D03C0F801108280E0DF91CF9117
:100D40001F910F910895FC01108214821382158265
:100D500008951F920F920FB60F9211242F933F9375
:100D60008F939F93AF93BF938091BA029091BB02F0
:100D7000A091BC02B091BD023091B90223E0230FD3
:100D80002D3720F40196A11DB11D05C026E8230FC3
:100D90000296A11DB11D2093B9028093BA029093CF
:100DA000BB02A093BC02B093BD028091BE029091A1
:100DB000BF02A091C002B091C1020196A11DB11D58
:100DC0008093BE029093BF02A093C002B093C10271
:100DD000BF91AF919F918F913F912F910F900FBE37
:100DE0000F901F9018952FB7F8946091BA027091E8
:100DF000BB028091BC029091BD022FBF08953FB706
:100E0000F8948091BE029091BF02A091C002B0916F
:100E1000C10226B5A89B05C02F3F19F00196A11D60
:100E2000B11D3FBF6627782F892F9A2F620F711D42
:100E3000811D911D42E0660F771F881F991F4A95FB
:100E4000D1F70895CF92DF92EF92FF92CF93DF9385
:100E50006B017C01D4DFEB01C114D104E104F10486
:100E600079F0DFD5CCDF6C1B7D0B683E7340A0F3BF
:100E700081E0C81AD108E108F108C851DC4FECCF75
:100E8000DF91CF91FF90EF90DF90CF90089578940D
:100E900084B5826084BD84B5816084BD85B582607F
:100EA00085BD85B5816085BDEEE6F0E0808181601D
:100EB0008083E1E8F0E0108280818260808380811D
:100EC00081608083E0E8F0E0808181608083E1EBF5
:100ED000F0E0808184608083E0EBF0E080818160DD
:100EE0008083E1E9F0E0808182608083808181609D
:100EF0008083E0E9F0E0808181608083E1EAF0E0D6
:100F0000808182608083808181608083E0EAF0E07C
:100F1000808181608083E1E2F1E080818260808372
:100F2000808181608083E0E2F1E080818160808364
:100F3000EAE7F0E080818460808380818260808342
:100F40008081816080838081806880831092C1006D
:100F50000895863308F0865320917B00982F98706F
:100F6000277F922B90937B00877020911F0290E443
:100F7000299F90011124822B80937C0080917A001C
:100F8000806480937A0080917A0086FDFCCF809106
:100F900078002091790090E0922B08951F93CF93D1
:100FA000DF93182FEB0161E00FD1209711F460E07F
:100FB00004C0CF3FD10531F461E0812FDF91CF91A3
:100FC0001F913BC1E12FF0E0E05CFE4F449150E007
:100FD000FA013197E231F10508F09AC0E458FF4F69
:100FE0006EC584B5806884BDC7BD97C084B5806276
:100FF00084BDC8BD92C080918000806880938000CD
:10100000D0938900C093880088C08091800080625E
:1010100080938000D0938B00C0938A007EC0809123
:101020008000886080938000D0938D00C0938C00F6
:1010300074C08091B00080688093B000C093B3000A
:101040006CC08091B00080628093B000C093B40007
:1010500064C080919000806880939000D093990044
:10106000C09398005AC08091900080628093900055
:10107000D0939B00C0939A0050C0809190008860EC
:1010800080939000D0939D00C0939C0046C08091B7
:10109000A00080688093A0008091A0008F7B809347
:1010A000A000D093A900C093A80037C08091A000F1
:1010B00080628093A000D093AB00C093AA002DC0A3
:1010C0008091A00088608093A000D093AD00C09371
:1010D000AC0023C080912001806880932001D093D0
:1010E0002901C093280119C080912001806280935A
:1010F0002001D0932B01C0932A010FC080912001C1
:10110000886080932001D0932D01C0932C0105C0ED
:10111000C038D1050CF050CF4ACFDF91CF911F914D
:10112000089590E0FC013197E231F10508F04BC0E1
:10113000E257FF4FC4C4809180008F7703C0809135
:1011400080008F7D80938000089580918000877F4C
:10115000F9CF84B58F7702C084B58F7D84BD0895A3
:101160008091B0008F7703C08091B0008F7D809315
:10117000B0000895809190008F7707C08091900013
:101180008F7D03C080919000877F809390000895A9
:101190008091A0008F7707C08091A0008F7D03C051
:1011A0008091A000877F8093A00008958091200106
:1011B0008F7707C0809120018F7D03C0809120012F
:1011C000877F809320010895CF93DF9390E0FC0107
:1011D000EA57FE4F2491FC01E453FE4F849188238B
:1011E00049F190E0880F991FFC01EA5BFD4FA59142
:1011F000B491845D9D4FFC01C591D4919FB761115D
:1012000008C0F8948C91209582238C938881822346
:101210000AC0623051F4F8948C91322F30958323B8
:101220008C938881822B888304C0F8948C91822BC4
:101230008C939FBFDF91CF9108950F931F93CF930E
:10124000DF931F92CDB7DEB7282F30E0F901E05CC5
:10125000FE4F8491F901EA57FE4F1491F901E453CE
:10126000FE4F04910023C1F0882319F0698359DFF0
:101270006981E02FF0E0EE0FFF1FE45DFD4FA591C7
:10128000B4919FB7F8948C91611103C0109581239C
:1012900001C0812B8C939FBF0F90DF91CF911F9145
:1012A0000F910895CF93DF93282F30E0F901E05C90
:1012B000FE4F8491F901EA57FE4FD491F901E453AE
:1012C000FE4FC491CC2389F081112BDFEC2FF0E08D
:1012D000EE0FFF1FEE5EFD4FA591B4912C912D23D3
:1012E00081E090E021F480E002C080E090E0DF91B6
:1012F000CF910895FC01818D228D90E0805C9F4FFD
:10130000821B91098F7399270895FC01918D828D1D
:10131000981731F0828DE80FF11D858D90E00895CA
:101320008FEF9FEF0895FC01918D828D981761F0EA
:10133000828DDF01A80FB11D5D968C91928D9F5F0C
:101340009F73928F90E008958FEF9FEF089588E448
:101350009BE0892B39F080E090E0892B19F098D13F
:10136000811125C080E090E0892B41F080E090E081
:10137000892B21F00E94000081111CC080E090E0C8
:10138000892B41F080E090E0892B21F00E94000041
:10139000811113C080E090E0892BA1F080E090E003
:1013A000892B81F00E94000081110AC008950E94DB
:1013B0000000D8CF0E940000E1CF0E940000EACFD9
:1013C0000C9400000895FC01848DDF01A80FB11D6D
:1013D000A35ABF4F2C91848D90E001968F7399276B
:1013E000848FA689B7892C93A089B1898C91806458
:1013F0008C93938D848D981306C00288F389E02D19
:1014000080818F7D80830895CF93DF93EC01888D59
:101410008823C1F0EA89FB89808185FD05C0A88900
:10142000B9898C9186FD0EC00FB607FCF5CF80817F
:1014300085FFF2CFA889B9898C9185FFEDCFCE01C8
:10144000C2DFE8CFDF91CF910895CF92DF92FF9274
:101450000F931F93CF93DF931F92CDB7DEB76C012D
:10146000DC015B969C915B975C968C915C979813E2
:1014700007C05096ED91FC915197808185FD31C058
:10148000F601038D10E00F5F1F4F0F731127F02E31
:10149000F601848DF81210C00FB607FCF9CFD60103
:1014A0005096ED91FC915197808185FFF1CFC60157
:1014B000698389DF6981ECCF838DE80FF11DE35AE1
:1014C000FF4F6083D6015B960C935B975296ED912C
:1014D000FC91539780818062808381E058968C9341
:1014E0000DC0D6015696ED91FC91579760835096AA
:1014F000ED91FC91519780818064808381E090E040
:101500000F90DF91CF911F910F91FF90DF90CF90BF
:101510000895BF92CF92DF92EF92FF92CF93DF9325
:10152000EC016A017B01B22EE889F98982E08083AF
:10153000411581EE58076105710599F060E079E089
:101540008DE390E0A70196017CD221503109410939
:1015500051095695479537952795211580E138070C
:1015600090F0E889F989108260E874E88EE190E0F3
:10157000A701960166D221503109410951095695BA
:10158000479537952795EC85FD853083EE85FF855A
:101590002083188EEC89FD89B082EA89FB898081DD
:1015A00080618083EA89FB89808188608083EA8901
:1015B000FB89808180688083EA89FB8980818F7DB7
:1015C0008083DF91CF91FF90EF90DF90CF90BF901D
:1015D00008951F920F920FB60F9211240BB60F921F
:1015E0002F938F939F93EF93FF93E091D202F0910B
:1015F000D3028081E091D802F091D90282FD12C01D
:1016000090818091DB028F5F8F732091DC028217C3
:1016100051F0E091DB02F0E0EE53FD4F958F8093A7
:10162000DB0201C08081FF91EF919F918F912F91FB
:101630000F900BBE0F900FBE0F901F9018951F922A
:101640000F920FB60F9211240BB60F922F933F9368
:101650004F935F936F937F938F939F93AF93BF93BA
:10166000EF93FF9382EC92E0AEDEFF91EF91BF919A
:10167000AF919F918F917F916F915F914F913F912A
:101680002F910F900BBE0F900FBE0F901F901895CB
:1016900082EC92E02FDE21E0892B09F420E0822FFA
:1016A00008951092C5021092C40288EE93E0A0E063
:1016B000B0E08093C6029093C702A093C802B09393
:1016C000C9028AE392E09093C3028093C20285EC40
:1016D00090E09093CF028093CE0284EC90E09093C0
:1016E000D1028093D00280EC90E09093D30280935B
:1016F000D20281EC90E09093D5028093D40282ECE8
:1017000090E09093D7028093D60286EC90E090937D
:10171000D9028093D8021092DB021092DC02109260
:10172000DD021092DE0208950895B1DBFDDF0E9414
:101730006B01C7EAD9E00E94E1012097E1F307DEDF
:10174000FACFCF92DF92EF92FF920F931F93CF9336
:10175000DF936C017A01EB01E60EF71E00E010E06A
:10176000CE15DF0561F06991D601ED91FC910190F4
:10177000F081E02DC6011995080F191FF1CFC8019E
:10178000DF91CF911F910F91FF90EF90DF90CF905D
:1017900008956115710581F0DB010D900020E9F7D6
:1017A000AD0141505109461B570BDC01ED91FC91F5
:1017B0000280F381E02D199480E090E00895DC012F
:1017C000ED91FC910190F081E02D19940F931F93FE
:1017D000CF93DF93EC016DE0F2DF8C016AE0CE0184
:1017E000EEDF800F911FDF91CF911F910F91089530
:1017F0000F931F93CF93DF93EC01CBDF8C01CE01CE
:10180000E5DF800F911FDF91CF911F910F91089518
:101810008F929F92AF92BF92CF92DF92EF92FF9200
:101820000F931F93CF93DF93CDB7DEB7A1970FB67A
:10183000F894DEBF0FBECDBF7C01C42EE52FCB01D7
:10184000D22E19A221E02D1510F02AE0D22E8E0101
:101850000F5D1F4F8D2C912CA12CB12C6C2D7E2F48
:10186000A5019401EED08C2DD29E80191124015037
:1018700011098A3014F4805D01C0895CF80180830D
:10188000211531054105510521F0C22EE32FCA0172
:10189000E5CFB801C7017DDFA1960FB6F894DEBF92
:1018A0000FBECDBFDF91CF911F910F91FF90EF90B1
:1018B000DF90CF90BF90AF909F908F900895CF9280
:1018C000DF92EF92FF920F931F93CF93DF93EC0180
:1018D0006A017B012115310579F4E881F9810190D4
:1018E000F081E02D642FDF91CF911F910F91FF9038
:1018F000EF90DF90CF9019942A303105D9F477FF1B
:1019000018C06DE25CDF8C0144275527BA014C19E1
:101910005D096E097F092AE0CE017ADF800F911FF1
:10192000DF91CF911F910F91FF90EF90DF90CF90BB
:1019300008952AE0B701A601CE01DF91CF911F9152
:101940000F91FF90EF90DF90CF9062CF0F931F9396
:10195000CF93DF93EC019A01AB01662757FD6095A9
:10196000762FADDF8C01CE0131DF800F911FDF912B
:10197000CF911F910F9108950F931F93CF93DF93F2
:10198000EC019DDF8C01CE0121DF800F911FDF91E3
:10199000CF911F910F9108954F925F926F927F9216
:1019A000AF92BF92CF92DF92EF92FF920F931F936D
:1019B000CF93DF93CDB7DEB729013A01621B730BDA
:1019C000840B950B2A893B894C895D892A193B092F
:1019D0004C095D092A8B3B8B4C8B5D8B9B01AC01C9
:1019E0006A897B898C899D891DD0E418F5080609D0
:1019F0001709A801970147D02A0D3B1D4C1D5D1DFD
:101A0000CA01B901DF91CF911F910F91FF90EF9023
:101A1000DF90CF90BF90AF907F906F905F904F908E
:101A200008950895DB018F939F934FD0BF91AF919D
:101A3000A29F800D911DA39F900DB29F900D112428
:101A40000895A1E21A2EAA1BBB1BFD010DC0AA1FFF
:101A5000BB1FEE1FFF1FA217B307E407F50720F017
:101A6000A21BB30BE40BF50B661F771F881F991F92
:101A70001A9469F760957095809590959B01AC01DB
:101A8000BD01CF010895052E97FB16F400940FD0E9
:101A900057FD05D0D6DF07FC02D046F408C05095AC
:101AA0004095309521953F4F4F4F5F4F089590954A
:101AB0008095709561957F4F8F4F9F4F0895EE0FE2
:101AC000FF1F0590F491E02D19940DD0A59F900D66
:101AD000B49F900DA49F800D911D1124089507902F
:101AE000F691E02D1994A29FB001B39FC001A39F6E
:101AF000700D811D1124911DB29F700D811D112447
:081B0000911D0895F894FFCF38
:101B080001000000040002000B000A000807060597
:101B18000403023132333435363738392A30230159
:101B2800417475616C3A005265663A000000000025
:101B3800A603A903AC0300000000250AA10B7A093B
:061B480093098509040A5F
:00000001FF
