:100000003AC1000086C70000B5C70000E4C7000081
:100010000C941C080C944D080C947E080C94AF08AA
:100020000C94E00859C1000057C1000055C1000000
:1000300053C1000051C100004FC100004DC100007C
:100040004BC1000049C1000047C1000045C100008C
:1000500043C1000041C100003FC100000C941109E0
:100060003BC100000C94500D0C94860D35C100006E
:1000700033C1000031C100002FC100002DC10000BC
:100080002BC1000029C1000027C1000025C10000CC
:100090000C94FB0D0C94310E1FC100001DC100001B
:1000A0001BC1000019C1000017C1000015C10000EC
:1000B00013C1000011C100000FC100000DC10000FC
:1000C0000BC1000009C1000007C1000005C100000C
:1000D00003C1000001C10000FFC00000FDC000001E
:1000E000FBC0000088026D02700273027602790282
:1000F0007C027F028202850263072D0735074107D4
:100100004E076F077C07590A5E0A630A6D0A770A71
:10011000F00A810A890A910A9B0AA50AAF0ABE0A57
:10012000C80AF00AD20ADC0AE60A110B140B030B08
:10013000070B0D0B4B0B180B1C0B220B260B2A0B62
:10014000300B340B380B4B0B3E0B420B460B0000B5
:100150000A0B02090C0D0E08070304010000000041
:10016000000000000000000000000000000000008F
:10017000000000000000000000001211100000004C
:10018000000000000000000000000000000000006F
:10019000000000000102102020080810204010205C
:1001A000408002010201080402010102040810203B
:1001B0004080804020100804020180040201804039
:1001C00020100804020108040201010204081020A2
:1001D0004080010204081020408005050505070540
:1001E00008080808020202020A0A080804040404B3
:1001F00001010101010101010303030303030303DF
:10020000040707070C0C0C0C0C0C0C0C020202026D
:1002100006060606060606060B0B0B0B0B0B0B0B56
:10022000000020002300260029002C002F003200AF
:100230000001000003010601090100002200250061
:1002400028002B002E0031003400020100000501BF
:1002500008010B0100002100240027002A002D00C6
:100260003000330001010000040107010A01E1032D
:10027000B80D630EF80311241FBECFEFD1E2DEBF2D
:10028000CDBF00E00CBF12E0A0E0B2E0E8E8F7E28A
:1002900000E00BBF02C007900D92AC34B107D9F754
:1002A00024E0ACE4B2E001C01D92AE31B207E1F748
:1002B00012E0C4E7D2E000E006C022970109FE0187
:1002C0000BBF0E944A11CE36D10780E00807A9F77C
:1002D0000E94A70E0C94B31393CE8091500291E02C
:1002E0008927809350020895DC01ED91FC910190E3
:1002F000F081E02D1994AF92BF92CF92DF92EF92EE
:10030000FF920F931F93CF93DF9361E080911002D0
:100310000E944C0B61E080910E020E944C0BCCE0DD
:10032000D2E061E088810E944C0B61E080910A027A
:100330000E944C0B43E050E06DE671E083E078D51D
:1003400026E040E855E260E070E080EE92E00E9436
:10035000F00C26E040E855E260E070E08DE793E0C5
:100360000E94F00C64EF71E080E090E0D3D761E090
:1003700088810E94850B86E30E94110ABC018827B0
:1003800077FD8095982F1F921F921F9227E82F9339
:1003900029E7A22EBB24BA94CB2CDB2CEE24EA94C2
:1003A00013E0F12E00E010E020E030E0A9010E940F
:1003B000CE0F1F921F921F9221EE2F9343EDA42E7A
:1003C000BB24BA94CB2CDB2C17E8E12EF12C00E0F7
:1003D00010E029E73FEF4FEF5FEF0E94CE0F7093E1
:1003E0004D0260934C028DB79EB708960FB6F894F5
:1003F0009EBF0FBE8DBF68EC70E081EC92E0DF9194
:10040000CF911F910F91FF90EF90DF90CF90BF9011
:10041000AF900C9441104F925F926F927F929F9297
:10042000AF92BF92CF92DF92EF92FF920F931F9302
:10043000CF93DF9300D01F92CDB7DEB780915002EB
:10044000811115C08091C0028823B1F081EC92E047
:100450000E94E21070934D0260934C0261E372E0DF
:1004600081EC92E00E948F101092C00205C065EFEF
:1004700071E08DE793E038DF81E592E0B3D420911D
:100480004E0230914F02253B310524F010924F026D
:1004900010924E02882309F454C020914E023091EC
:1004A0004F02833261F4253B310524F430934D0231
:1004B00020934C0210924F0210924E0242C0992794
:1004C00087FD9095A92FB92FFC01F097EA30F1052F
:1004D00008F5EE58FF4F0C943A1101E010E01AC0F5
:1004E00002E010E017C003E010E014C004E010E0E8
:1004F00011C005E010E00EC006E010E00BC007E000
:1005000010E008C008E010E005C009E010E002C0FB
:1005100000E010E0121613062CF010934F02009327
:100520004E020FC02436310564F44AE0429FC001F8
:10053000439F900D1124800F911F90934F02809341
:100540004E0286E36ED72C01662457FC6094762C0D
:100550001F921F921F92A7E89A2E9F92B9E7AB2E87
:10056000BB24BA94CB2CDB2CEE24EA9413E0F12EBE
:1005700000E010E020E030E0A901C301B2010E94D8
:10058000CE0F1F921F921F9221EE2F9323EDA22ECA
:10059000BB24BA94CB2CDB2C17E8E12EF12C00E025
:1005A00010E029E73FEF4FEF5FEF0E94CE0F6B01A6
:1005B0007C018DE793E098DE87E333D76EEF70E040
:1005C00080EE92E091DE61E070E080EE92E08CDE01
:1005D0006AE070E080E090E09DD666E272E080EE36
:1005E00092E00E940A0F4AE050E0B60180EE92E0ED
:1005F0000E94B80F6EEF70E080EE92E075DE60EC66
:1006000070E080EE92E070DE6AE070E080E090E002
:1006100081D66DE272E080EE92E00E940A0F609156
:100620004C0270914D024AE050E080EE92E00E9450
:10063000B80F60914E0270914F024AE050E080EE98
:1006400092E00E94B80F65EA70E080E090E062D628
:1006500060914C0270914D02882777FD8095982F0C
:100660001F921F921F922AE52F9346EAA42EBB24C5
:10067000BA94CB2CDB2C14EBE12EF12C00E010E033
:1006800020E030E0A9010E94CE0F69837A838B833A
:100690009C831F921F921F929F9269E7A62EBB24F4
:1006A000BA94CB2CDB2CEE24EA9413E0F12E00E07C
:1006B00010E020E030E0A901C301B2010E94CE0F9A
:1006C00029813A81261B370BB901882777FD809550
:1006D000982F1F921F921F922FEF2F93A12CB12CB6
:1006E000650120E030E0A9010E94CE0F2AE0269F9C
:1006F0008001279F100D11240FB6F894DEBF0FBEA6
:10070000CDBF0F3F110509F0FCF401309FEF190731
:100710001CF017FF15C002C001E01FEF60E070E0A1
:1007200080911002A3D617FF02C00D5F1F4FB801C2
:10073000759567957595679571956195710910C067
:100740000115110519F102C00FEF10E0B801759500
:100750006795759567958091100288D660E070E086
:1007600080910E020F900F900F900F90DF91CF911C
:100770001F910F91FF90EF90DF90CF90BF90AF90BF
:100780009F907F906F905F904F9070C661E08091D6
:100790001002BBD761E080910E020F900F900F9076
:1007A0000F90DF91CF911F910F91FF90EF90DF900D
:1007B000CF90BF90AF909F907F906F905F904F9041
:1007C000A4C7EF920F9361E372E081EC92E00E9484
:1007D0007A10E3E0EE2E04E022E132E045E152E05F
:1007E00069E172E081E592E028D00F91EF900895E1
:1007F00081EC92E00C941310CF93DF93D1E080EE64
:1008000092E0E0D7892B71F080EE92E0F4D7C82F08
:10081000682F81EC92E00E94CF10CA3081F7D0930C
:10082000C002EDCFDF91CF910895862F642F34C79A
:10083000862F642F6AC7862F9DC74F925F926F9253
:100840007F928F929F92AF92BF92CF92DF92EF9260
:100850000F93CF93DF93EC014B013A0159010296BC
:10086000E1D286E392E0998388836E018CE1C80E21
:10087000D11C26018CE3480E511CC601D3D286E060
:10088000C80ED11CC414D504C1F7FE01EE59FF4FA8
:10089000718260823296B182A08232960083319654
:1008A000E08237979182808238968AE090E0918347
:1008B0008083329684EF91E0918380833396118216
:1008C000108271971082118212821382C459DF4FF5
:1008D0001882DF91CF910F91EF90DF90CF90BF9072
:1008E000AF909F908F907F906F905F904F90089502
:1008F0002F923F924F925F926F927F928F929F9230
:10090000AF92BF92CF92DF92EF92FF920F931F931D
:10091000CF93DF93CDB7DEB728970FB6F894DEBF3D
:100920000FBECDBF98878F83F12C4C0186E6880ED1
:10093000911C0F8118850E591F4FD4018C91F81608
:10094000A0F4AF81B8858D919C91F801A081B1810F
:10095000AF0DB11DFC012081318142E06C918F818E
:100960009885F9011995F394E8CF512CEF81F8851A
:10097000E959FF4FFA83E9830F8118850C591F4FFE
:10098000C12CD12C7601C3948F8198858E599F4FAD
:100990009C838B83A981BA818C91581608F088C0FA
:1009A000A52CB12CAF81B8858D919C91F801A081C7
:1009B000B181AA0DBB1DFC012081318141E06C9108
:1009C0008F819885F9011995AF81B8858D919C919A
:1009D000F801A081B181AA0DBB1DFC0122813381E8
:1009E00040E06C918F819885F9011995D701C60176
:1009F000052C04C0880F991FAA1FBB1F0A94D2F7A9
:100A00009C011C0120943094412CD4018C91EF81E5
:100A1000F88540815181481648F5642C712CEB8192
:100A2000FC81A081B181A60DB71DFA0144815581D9
:100A30006C918F8198852D833E83FA011995660C00
:100A4000771C2D813E81EF81F885E60DF71D892BFE
:100A500029F480859185822B932B04C08085918514
:100A600082219321918780874394CFCFF801A08181
:100A7000B181AA0DBB1DFA012281338141E06C9145
:100A80008F819885F9011995AF81B8858D919C91D9
:100A9000F801A081B181AA0DBB1DFC01208131812B
:100AA00040E06C918F819885F9011995539472CF2C
:100AB00028960FB6F894DEBF0FBECDBFDF91CF9161
:100AC0001F910F91FF90EF90DF90CF90BF90AF906C
:100AD0009F908F907F906F905F904F903F902F905E
:100AE0000895FC0180E090E0258D368D26173707AC
:100AF00039F0019636968A309105B1F78FEF9FEF66
:100B00000895DC0126E0629FA00DB11D112490968E
:100B10005C934E935F9721E091962C939197FC0103
:100B2000E459FF4F208131960190F081E02D22237E
:100B300031F0309749F0611107C0DC0102C03097F5
:100B400019F05C968C9119940895CF92DF92FF92E0
:100B50000F931F93CF93DF931F92CDB7DEB76C0136
:100B6000F62EFC0186E0689FE00DF11D112411A214
:100B7000878D90A181309105E1F01CF4892B51F013
:100B800042C08230910581F1039709F03CC040E0FA
:100B900050E02EC04423B9F141E050E0C601B1DF7E
:100BA0008AD3F601E85AFF4F60837183828393836F
:100BB0002AC0498380D3F601E85AFF4F0081118192
:100BC00022813381601B710B820B930B7296008123
:100BD000118120E030E049810617170728073907FF
:100BE00018F442E050E004C041110DC043E050E071
:100BF0006F2DC6010F90DF91CF911F910F91FF9044
:100C0000DF90CF907ECF0F90DF91CF911F910F910A
:100C1000FF90DF90CF9008952F923F924F925F9276
:100C20006F927F928F929F92AF92BF92CF92DF92FC
:100C3000EF92FF920F931F93CF93DF931F92CDB745
:100C4000DEB71C01FC014AE08FEF9FEF278D30A13A
:100C5000232B21F4148E968F858F11A24150369646
:100C60004111F4CF712C610126E6C20ED11C510155
:100C700087E6A80EB11C4101A0E68A0E911C46E051
:100C8000442ED6018C91781608F053C0612C810156
:100C9000070D111D070D111D085F1F4FF501E080A5
:100CA0006E1408F044C0F80140815181062C02C046
:100CB000569547950A94E2F741707E9C7001112485
:100CC000E60CF11CD401ED91FC91EE0DFF1D50805E
:100CD000B701C101498305DF498197FD02C0682F33
:100CE0001BC0019611F5442301F180E090E060E023
:100CF00070E0F101E80FF91F248D211110C0469E0C
:100D0000F001479EF00D1124E20DF31D548EF68E76
:100D1000E58E10A2178E41E0C10117DF06C06F5F9C
:100D20007F4F06966A30710521F76394B7CF7394AD
:100D3000A8CF20E030E080E0F101E20FF31F91A1A5
:100D4000911181E02A5F3F4F2C333105A9F70F90B5
:100D5000DF91CF911F910F91FF90EF90DF90CF9097
:100D6000BF90AF909F908F907F906F905F904F90CB
:100D70003F902F900895CF92DF92EF92FF920F93C2
:100D80001F93CF93DF938C0196D2E801C45ADF4FB3
:100D9000C880D980EA80FB806C197D098E099F0983
:100DA000F801E859FF4FC080D180E12CF12CC61624
:100DB000D706E806F90658F4C8019ADDC8012CDF09
:100DC000182F79D2688379838A839B8301C010E0CE
:100DD000812FDF91CF911F910F91FF90EF90DF90C6
:100DE000CF9008950F931F93CF93DF93EC018C0165
:100DF00004591F4F81E0F8018083CE01BCDF8823B6
:100E000049F089A1882331F08F8D98A1019711F4C1
:100E10008C8D03C0F801108280E0DF91CF911F918B
:100E20000F910895FC011082148213821582089597
:100E3000883008F06DC0E82FF0E0EE0FFF1FE95397
:100E4000FD4F7183608390E0FC013197E730F1053D
:100E500090F5E458FF4F0C943A11809169008C7F13
:100E6000842B80936900E89A089580916900440F6B
:100E7000551F440F551F837F842B80936900E99A87
:100E800008958091690074E0440F551F7A95E1F749
:100E90008F7C842B80936900EA9A08958091690081
:100EA00066E0440F551F6A95E1F78F73842B80939A
:100EB0006900EB9A089580916A008C7F842B80935F
:100EC0006A00EC9A089580916A00440F551F440F00
:100ED000551F837F842B80936A00ED9A089580913B
:100EE0006A0024E0440F551F2A95E1F78F7C842B7C
:100EF00080936A00EE9A089580916A0096E0440F0C
:100F0000551F9A95E1F78F73842B80936A00EF9AAF
:100F100008951F920F920FB60F9211240BB60F92E5
:100F20002F933F934F935F936F937F938F939F93F1
:100F3000AF93BF93EF93FF938091CB029091CC023C
:100F4000892B29F0E091CB02F091CC021995FF9109
:100F5000EF91BF91AF919F918F917F916F915F9131
:100F60004F913F912F910F900BBE0F900FBE0F909E
:100F70001F9018951F920F920FB60F9211240BB667
:100F80000F922F933F934F935F936F937F938F9322
:100F90009F93AF93BF93EF93FF938091CD02909176
:100FA000CE02892B29F0E091CD02F091CE02199565
:100FB000FF91EF91BF91AF919F918F917F916F9131
:100FC0005F914F913F912F910F900BBE0F900FBEED
:100FD0000F901F9018951F920F920FB60F92112429
:100FE0000BB60F922F933F934F935F936F937F9323
:100FF0008F939F93AF93BF93EF93FF938091CF0213
:101000009091D002892B29F0E091CF02F091D0028B
:101010001995FF91EF91BF91AF919F918F917F9122
:101020006F915F914F913F912F910F900BBE0F9059
:101030000FBE0F901F9018951F920F920FB60F9230
:1010400011240BB60F922F933F934F935F936F939F
:101050007F938F939F93AF93BF93EF93FF93809171
:10106000D1029091D202892B29F0E091D102F09126
:10107000D2021995FF91EF91BF91AF919F918F91FE
:101080007F916F915F914F913F912F910F900BBE88
:101090000F900FBE0F901F9018951F920F920FB6D2
:1010A0000F9211240BB60F922F933F934F935F93A0
:1010B0006F937F938F939F93AF93BF93EF93FF9320
:1010C0008091C7029091C802892B29F0E091C70254
:1010D000F091C8021995FF91EF91BF91AF919F9147
:1010E0008F917F916F915F914F913F912F910F90D1
:1010F0000BBE0F900FBE0F901F9018951F920F926E
:101100000FB60F9211240BB60F922F933F934F936C
:101110005F936F937F938F939F93AF93BF93EF935F
:10112000FF938091C9029091CA02892B29F0E09126
:10113000C902F091CA021995FF91EF91BF91AF9149
:101140009F918F917F916F915F914F913F912F91DF
:101150000F900BBE0F900FBE0F901F9018951F920F
:101160000F920FB60F9211240BB60F922F933F934D
:101170004F935F936F937F938F939F93AF93BF939F
:10118000EF93FF938091D3029091D402892B29F0A1
:10119000E091D302F091D4021995FF91EF91BF91A4
:1011A000AF919F918F917F916F915F914F913F91FF
:1011B0002F910F900BBE0F900FBE0F901F901895A0
:1011C0001F920F920FB60F9211240BB60F922F930E
:1011D0003F934F935F936F937F938F939F93AF93BF
:1011E000BF93EF93FF938091D5029091D602892B04
:1011F00029F0E091D502F091D6021995FF91EF9177
:10120000BF91AF919F918F917F916F915F914F911E
:101210003F912F910F900BBE0F900FBE0F901F901C
:1012200018951F920F920FB60F9211242F933F9390
:101230008F939F93AF93BF938091D8029091D902DF
:10124000A091DA02B091DB023091D70223E0230FA4
:101250002D3720F40196A11DB11D05C026E8230FEE
:101260000296A11DB11D2093D7028093D8029093BE
:10127000D902A093DA02B093DB028091DC02909154
:10128000DD02A091DE02B091DF020196A11DB11D29
:101290008093DC029093DD02A093DE02B093DF0224
:1012A000BF91AF919F918F913F912F910F900FBE62
:1012B0000F901F9018952FB7F8946091D8027091F5
:1012C000D9028091DA029091DB022FBF08953FB7D7
:1012D000F8948091DC029091DD02A091DE02B09141
:1012E000DF0226B5A89B05C02F3F19F00196A11D6E
:1012F000B11D3FBF6627782F892F9A2F620F711D6E
:10130000811D911D42E0660F771F881F991F4A9526
:10131000D1F70895CF92DF92EF92FF92CF93DF93B0
:101320006B017C01D4DFEB01C114D104E104F104B1
:1013300079F052D7CCDF6C1B7D0B683E7340A0F375
:1013400081E0C81AD108E108F108C851DC4FECCFA0
:10135000DF91CF91FF90EF90DF90CF900895789438
:1013600084B5826084BD84B5816084BD85B58260AA
:1013700085BD85B5816085BDEEE6F0E08081816048
:101380008083E1E8F0E01082808182608083808148
:1013900081608083E0E8F0E0808181608083E1EB20
:1013A000F0E0808184608083E0EBF0E08081816008
:1013B0008083E1E9F0E080818260808380818160C8
:1013C0008083E0E9F0E0808181608083E1EAF0E001
:1013D000808182608083808181608083E0EAF0E0A8
:1013E000808181608083E1E2F1E08081826080839E
:1013F000808181608083E0E2F1E080818160808390
:10140000EAE7F0E08081846080838081826080836D
:101410008081816080838081806880831092C10098
:101420000895863308F0865320917B00982F98709A
:10143000277F922B90937B0087702091250290E468
:10144000299F90011124822B80937C0080917A0047
:10145000806480937A0080917A0086FDFCCF809131
:1014600078002091790090E0922B08951F93CF93FC
:10147000DF93182FEB0161E00FD1209711F460E0AA
:1014800004C0CF3FD10531F461E0812FDF91CF91CE
:101490001F913BC1E12FF0E0E25BFE4F449150E031
:1014A000FA013197E231F10508F09AC0ED57FF4F8C
:1014B000E1C684B5806884BDC7BD97C084B580622D
:1014C00084BDC8BD92C080918000806880938000F8
:1014D000D0938900C093880088C08091800080628A
:1014E00080938000D0938B00C0938A007EC080914F
:1014F0008000886080938000D0938D00C0938C0022
:1015000074C08091B00080688093B000C093B30035
:101510006CC08091B00080628093B000C093B40032
:1015200064C080919000806880939000D09399006F
:10153000C09398005AC08091900080628093900080
:10154000D0939B00C0939A0050C080919000886017
:1015500080939000D0939D00C0939C0046C08091E2
:10156000A00080688093A0008091A0008F7B809372
:10157000A000D093A900C093A80037C08091A0001C
:1015800080628093A000D093AB00C093AA002DC0CE
:101590008091A00088608093A000D093AD00C0939C
:1015A000AC0023C080912001806880932001D093FB
:1015B0002901C093280119C0809120018062809385
:1015C0002001D0932B01C0932A010FC080912001EC
:1015D000886080932001D0932D01C0932C0105C019
:1015E000C038D1050CF050CF4ACFDF91CF911F9179
:1015F000089590E0FC013197E231F10508F04BC00D
:10160000EB56FF4F37C6809180008F7703C08091E3
:1016100080008F7D80938000089580918000877F77
:10162000F9CF84B58F7702C084B58F7D84BD0895CE
:101630008091B0008F7703C08091B0008F7D809340
:10164000B0000895809190008F7707C0809190003E
:101650008F7D03C080919000877F809390000895D4
:101660008091A0008F7707C08091A0008F7D03C07C
:101670008091A000877F8093A00008958091200131
:101680008F7707C0809120018F7D03C0809120015A
:10169000877F809320010895CF93DF9390E0FC0132
:1016A000EC56FE4F2491FC01E652FE4F84918823B4
:1016B00049F190E0880F991FFC01EC5AFD4FA5916C
:1016C000B491865C9D4FFC01C591D4919FB7611187
:1016D00008C0F8948C91209582238C938881822372
:1016E0000AC0623051F4F8948C91322F30958323E4
:1016F0008C938881822B888304C0F8948C91822BF0
:101700008C939FBFDF91CF9108950F931F93CF9339
:10171000DF931F92CDB7DEB7282F30E0F901E25BEF
:10172000FE4F8491F901EC56FE4F1491F901E652F7
:10173000FE4F04910023C1F0882319F0698359DF1B
:101740006981E02FF0E0EE0FFF1FE65CFD4FA591F1
:10175000B4919FB7F8948C91611103C010958123C7
:1017600001C0812B8C939FBF0F90DF91CF911F9170
:101770000F910895CF93DF93282F30E0F901E25BBA
:10178000FE4F8491F901EC56FE4FD491F901E652D7
:10179000FE4FC491CC2389F081112BDFEC2FF0E0B8
:1017A000EE0FFF1FE05EFD4FA591B4912C912D230C
:1017B00081E090E021F480E002C080E090E0DF91E1
:1017C000CF910895FC01818D228D90E0805C9F4F28
:1017D000821B91098F7399270895FC01918D828D49
:1017E000981731F0828DE80FF11D858D90E00895F6
:1017F0008FEF9FEF0895FC01918D828D981761F016
:10180000828DDF01A80FB11D5D968C91928D9F5F37
:101810009F73928F90E008958FEF9FEF08958FEA66
:101820009DE0892B39F080E090E0892B19F097D169
:10183000811124C08AE59EE0892B39F08CEF93E07A
:10184000892B19F037D281111CC080E090E0892BE0
:1018500041F080E090E0892B21F00E94000081118E
:1018600013C080E090E0892BA1F080E090E0892B0C
:1018700081F00E94000081110AC008950E940000BA
:10188000D9CF0E94FC03E1CF0E940000EACF0C9464
:1018900000000895FC01848DDF01A80FB11DA35A3B
:1018A000BF4F2C91848D90E001968F739927848F80
:1018B000A689B7892C93A089B1898C9180648C9377
:1018C000938D848D981306C00288F389E02D808162
:1018D0008F7D80830895CF93DF93EC01888D8823DB
:1018E000C1F0EA89FB89808185FD05C0A889B98995
:1018F0008C9186FD0EC00FB607FCF5CF808185FF69
:10190000F2CFA889B9898C9185FFEDCFCE01C2DFD6
:10191000E8CFDF91CF910895CF92DF92FF920F939E
:101920001F93CF93DF931F92CDB7DEB76C01DC011D
:101930005B969C915B975C968C915C97981307C023
:101940005096ED91FC915197808185FD31C0F60153
:10195000038D10E00F5F1F4F0F731127F02EF6015C
:10196000848DF81210C00FB607FCF9CFD60150963F
:10197000ED91FC915197808185FFF1CFC60169837C
:1019800089DF6981ECCF838DE80FF11DE35AFF4FAA
:101990006083D6015B960C935B975296ED91FC9118
:1019A000539780818062808381E058968C930DC02C
:1019B000D6015696ED91FC91579760835096ED9124
:1019C000FC91519780818064808381E090E00F904A
:1019D000DF91CF911F910F91FF90DF90CF900895ED
:1019E000BF92CF92DF92EF92FF92CF93DF93EC0101
:1019F0006A017B01B22EE889F98982E08083411572
:101A000081EE58076105710599F060E079E08DE39A
:101A100090E0A7019601F0D3215031094109510905
:101A20005695479537952795211580E1380790F011
:101A3000E889F989108260E874E88EE190E0A701F6
:101A40009601DAD32150310941095109569547953C
:101A500037952795EC85FD853083EE85FF852083BE
:101A6000188EEC89FD89B082EA89FB8980818061CA
:101A70008083EA89FB89808188608083EA89FB8989
:101A8000808180688083EA89FB8980818F7D808363
:101A9000DF91CF91FF90EF90DF90CF90BF900895AE
:101AA0001F920F920FB60F9211240BB60F922F9325
:101AB0008F939F93EF93FF93E091F002F091F102E7
:101AC0008081E091F602F091F70282FD12C09081D0
:101AD0008091F9028F5F8F732091FA02821751F083
:101AE000E091F902F0E0E052FD4F958F8093F9020A
:101AF00001C08081FF91EF919F918F912F910F9065
:101B00000BBE0F900FBE0F901F9018951F920F9253
:101B10000FB60F9211240BB60F922F933F934F9352
:101B20005F936F937F938F939F93AF93BF93EF9345
:101B3000FF9380EE92E0AEDEFF91EF91BF91AF9107
:101B40009F918F917F916F915F914F913F912F91D5
:101B50000F900BBE0F900FBE0F901F90189580EE48
:101B600092E030DE21E0892B09F420E0822F0895F5
:101B70001092E3021092E20288EE93E0A0E0B0E05F
:101B80008093E4029093E502A093E602B093E7020B
:101B900080E492E09093E1028093E00285EC90E093
:101BA0009093ED028093EC0284EC90E09093EF022E
:101BB0008093EE0280EC90E09093F1028093F0022B
:101BC00081EC90E09093F3028093F20282EC90E03B
:101BD0009093F5028093F40286EC90E09093F702E4
:101BE0008093F6021092F9021092FA021092FB0210
:101BF0001092FC0208951F920F920FB60F921124BB
:101C00000BB60F922F938F939F93EF93FF93E091D7
:101C10008D03F0918E038081E0919303F091940302
:101C200082FD12C09081809196038F5F8F73209107
:101C30009703821751F0E0919603F0E0E358FC4FD0
:101C4000958F8093960301C08081FF91EF919F91C2
:101C50008F912F910F900BBE0F900FBE0F901F9082
:101C600018951F920F920FB60F9211240BB60F9278
:101C70002F933F934F935F936F937F938F939F9394
:101C8000AF93BF93EF93FF938DE793E003DEFF9154
:101C9000EF91BF91AF919F918F917F916F915F91E4
:101CA0004F913F912F910F900BBE0F900FBE0F9051
:101CB0001F9018958DE793E085DD21E0892B09F4CD
:101CC00020E0822F08951092800310927F0388EE07
:101CD00093E0A0E0B0E08093810390938203A0930F
:101CE0008303B093840380E492E090937E03809317
:101CF0007D038DEC90E090938A03809389038CECB4
:101D000090E090938C0380938B0388EC90E0909309
:101D10008E0380938D0389EC90E0909390038093E1
:101D20008F038AEC90E090939203809391038EEC62
:101D300090E09093940380939303109296031092F3
:101D4000970310929803109299030895089507DB62
:101D5000FDDF0E947B01CFE0DCE00E940B022097B8
:101D6000E1F35DDDFACFCF92DF92EF92FF920F9316
:101D70001F93CF93DF936C017A01EB01E60EF71E00
:101D800000E010E0CE15DF0561F06991D601ED911C
:101D9000FC910190F081E02DC6011995080F191FE3
:101DA000F1CFC801DF91CF911F910F91FF90EF907C
:101DB000DF90CF9008956115710581F0DB010D90E2
:101DC0000020E9F7AD0141505109461B570BDC01DA
:101DD000ED91FC910280F381E02D199480E090E078
:101DE0000895DC01ED91FC910190F081E02D1994B2
:101DF0000F931F93CF93DF93EC016DE0F2DF8C0123
:101E00006AE0CE01EEDF800F911FDF91CF911F912D
:101E10000F9108950F931F93CF93DF93EC01CBDFC6
:101E20008C01CE01E5DF800F911FDF91CF911F91D3
:101E30000F9108958F929F92AF92BF92CF92DF92AF
:101E4000EF92FF920F931F93CF93DF93CDB7DEB73F
:101E5000A1970FB6F894DEBF0FBECDBF7C01C42E94
:101E6000E52FCB01D22E19A221E02D1510F02AE08A
:101E7000D22E8E010F5D1F4F8D2C912CA12CB12CD9
:101E80006C2D7E2FA5019401B7D18C2DD29E801987
:101E90001124015011098A3014F4805D01C0895C5D
:101EA000F8018083211531054105510521F0C22E2D
:101EB000E32FCA01E5CFB801C7017DDFA1960FB6B8
:101EC000F894DEBF0FBECDBFDF91CF911F910F9170
:101ED000FF90EF90DF90CF90BF90AF909F908F904A
:101EE0000895CF92DF92EF92FF920F931F93CF93BB
:101EF000DF93EC016A017B012115310579F4E8815A
:101F0000F9810190F081E02D642FDF91CF911F9135
:101F10000F91FF90EF90DF90CF9019942A30310508
:101F2000D9F477FF18C06DE25CDF8C014427552798
:101F3000BA014C195D096E097F092AE0CE017ADFEA
:101F4000800F911FDF91CF911F910F91FF90EF9024
:101F5000DF90CF9008952AE0B701A601CE01DF916E
:101F6000CF911F910F91FF90EF90DF90CF9062CFB4
:101F70000F931F93CF93DF93EC019A01AB01662778
:101F800057FD6095762FADDF8C01CE0131DF800FDC
:101F9000911FDF91CF911F910F9108954F925F9202
:101FA0006F927F92AF92BF92CF92DF92EF92FF92A9
:101FB0000F931F93CF93DF93CDB7DEB729013A017B
:101FC000621B730B840B950B2A893B894C895D89B5
:101FD0002A193B094C095D092A8B3B8B4C8B5D8B85
:101FE0009B01AC016A897B898C899D89F6D0E418B4
:101FF000F50806091709A801970120D12A0D3B1DF4
:102000004C1D5D1DCA01B901DF91CF911F910F9148
:10201000FF90EF90DF90CF90BF90AF907F906F9048
:102020005F904F900895FC0180819181DEC1CF9334
:10203000DF93EC0188819981009709F0D6D119824C
:1020400018821D821C821B821A82DF91CF91089513
:102050000F931F93CF93DF93EC018B016F5F7F4F43
:102060008881998151D2009731F0998388831B83AD
:102070000A8381E001C080E0DF91CF911F910F9131
:102080000895CF93DF93EC0188819981892B29F002
:102090008A819B818617970758F4CE01D9DF882360
:1020A00041F08C819D81892B19F4E881F98110829E
:1020B00081E0DF91CF910895EF92FF920F931F93EC
:1020C000CF93DF93EC017B018A01BA01DADF811142
:1020D00003C0CE01ACDF06C01D830C83B70188812D
:1020E000998125D3CE01DF91CF911F910F91FF9060
:1020F000EF900895FC0111821082138212821582E2
:1021000014826115710551F0FB0101900020E9F77F
:10211000AF0141505109461B570BCECF0895CF93C5
:10212000DF93EC016115710559F0FB01019000206E
:10213000E9F7AF0141505109461B570BBDDF01C004
:1021400076DFCE01DF91CF910895EF92FF920F934A
:102150001F93CF93DF93EC017B010C811D816115EF
:10216000710511F480E014C04115510581F0040F90
:10217000151FB80186DF8823A9F3288139818C8156
:102180009D81B701820F931FD2D21D830C8381E002
:10219000DF91CF911F910F91FF90EF900895CF9312
:1021A000DF931F921F92CDB7DEB769831A8241E099
:1021B00050E0BE016F5F7F4FC8DF0F900F90DF913F
:1021C000CF910895FC0180819181009709F080C230
:1021D00060E070E0CB0108950895DB018F939F9339
:1021E0004FD0BF91AF91A29F800D911DA39F900DE5
:1021F000B29F900D11240895A1E21A2EAA1BBB1BB9
:10220000FD010DC0AA1FBB1FEE1FFF1FA217B307C2
:10221000E407F50720F0A21BB30BE40BF50B661FD8
:10222000771F881F991F1A9469F76095709580959C
:1022300090959B01AC01BD01CF010895052E97FB40
:1022400016F400940FD057FD05D0D6DF07FC02D05E
:1022500046F408C050954095309521953F4F4F4F1B
:102260005F4F089590958095709561957F4F8F4F42
:102270009F4F0895EE0FFF1F0590F491E02D1994E4
:102280000DD0A59F900DB49F900DA49F800D911D22
:10229000112408950790F691E02D1994A29FB001A2
:1022A000B39FC001A39F700D811D1124911DB29F8A
:1022B000700D811D1124911D0895CF93DF938230FD
:1022C000910510F482E090E0E0911C04F0911D046F
:1022D00020E030E0A0E0B0E0309739F1408151815A
:1022E00048175907B8F04817590771F4828193814C
:1022F000109729F013969C938E9312972CC090936D
:102300001D0480931C0427C02115310531F04217AC
:10231000530718F0A901DB0101C0EF019A01BD01CB
:10232000DF010280F381E02DD7CF21153105F9F0CF
:10233000281B390B2430310580F48A819B8161157B
:10234000710521F0FB019383828304C090931D04E7
:1023500080931C04FE01329644C0FE01E20FF31F7D
:102360008193919322503109398328833AC0209177
:102370001A0430911B04232B41F420910202309166
:10238000030230931B0420931A0420910002309121
:1023900001022115310541F42DB73EB740910402E9
:1023A00050910502241B350BE0911A04F0911B0497
:1023B000E217F307A0F42E1B3F0B2817390778F01C
:1023C000AC014E5F5F4F2417350748F04E0F5F1F7B
:1023D00050931B0440931A048193919302C0E0E050
:1023E000F0E0CF01DF91CF910895CF93DF93009775
:1023F00009F487C0FC01329713821282C0911C0439
:10240000D0911D04209781F420813181280F391F3C
:1024100080911A0490911B048217930779F5F09329
:102420001B04E0931A046DC0DE0120E030E0AE171B
:10243000BF0750F412964D915C9113979D01411581
:10244000510509F1DA01F3CFB383A28340815181B1
:10245000840F951F8A179B0771F48D919C9111979A
:10246000840F951F02969183808312968D919C9183
:102470001397938382832115310529F4F0931D046A
:10248000E0931C043EC0D9011396FC93EE9312977F
:102490004D915D91A40FB51FEA17FB0779F4808178
:1024A0009181840F951F0296D90111969C938E936A
:1024B0008281938113969C938E931297E0E0F0E0D3
:1024C0008A819B81009719F0FE01EC01F9CFCE01C2
:1024D000029628813981820F931F20911A0430912E
:1024E0001B042817390769F4309729F410921D044A
:1024F00010921C0402C013821282D0931B04C0935A
:102500001A04DF91CF9108956F927F928F929F92DC
:10251000AF92BF92CF92DF92EF92FF920F931F93F1
:10252000CF93DF93EC01CB01209779F4DF91CF912A
:102530001F910F91FF90EF90DF90CF90BF90AF90E1
:102540009F908F907F906F90B8CEFE01E60FF71F9F
:102550009E0122503109E217F30708F4A8C0D901FF
:102560000D911C91119706171707B0F00530110552
:1025700008F49BC0A801445051094617570708F4B6
:1025800094C002501109061B170B019311936D9310
:102590007C93CF012ADF89C05B01A01AB10A4E01EA
:1025A000800E911EA0911C04B0911D04612C712C11
:1025B00060E070E0109709F449C0A815B905C9F5A5
:1025C000ED90FC901197670142E0C40ED11CCA1433
:1025D000DB0478F147018A189B08640142E0C40ECD
:1025E000D11C1296BC9012971396AC91B5E0CB1605
:1025F000D10440F0B282A38391828082D9018D936D
:102600009C9309C00E5F1F4F0E0D1F1DF901118312
:102610000083EB2DFA2F6115710531F0DB01139664
:10262000FC93EE93129741C0F0931D04E0931C04B9
:102630003CC06D917C9111976616770608F43B01BA
:10264000BD0112960D90BC91A02DB4CF60911A04DB
:1026500070911B0468157905E9F468167906D0F4C1
:1026600040910002509101024115510541F44DB7CE
:102670005EB76091040270910502461B570BE41788
:10268000F507A8F4F0931B04E0931A04F901918371
:1026900080830BC012DE7C01009749F0A801BE01C7
:1026A0003DD0CE01A2DEC70104C0CE0102C080E051
:1026B00090E0DF91CF911F910F91FF90EF90DF900D
:1026C000CF90BF90AF909F908F907F906F90089524
:1026D0001F93FC0199278827BC01E89411911032BF
:1026E000E9F3193010F01E30C8F31B3249F01D32E7
:1026F00041F4689405C022D0610F711D811D911DA8
:10270000119110531A30B8F33EF49095809570955E
:1027100061957F4F8F4F9F4F1F910895FB01DC0103
:1027200002C001900D9241505040D8F70895FB012E
:10273000DC0101900D920020E1F70895592F482FF8
:10274000372F262F660F771F881F991F660F771F59
:10275000881F991F620F731F841F951F660F771FB5
:10276000881F991F089512E0C4E7D2E000E005C079
:1027700022970109FE010BBF8DDDC637D10780E02E
:082780000807B1F7F894FFCF40
:1027880000001E04800001000000040002000B008D
:102798000A00080706050403023132333435363798
:1027A80038392A302301417475616C3A00526566E4
:1027B8003A0000000000150418041B040000000083
:0C27C8008C0CB30EE20BFB0BED0B6B0C4A
:00000001FF
