:1000000021C1000050C100004EC100004CC10000E1
:100010004AC1000048C1000046C1000044C10000C0
:1000200042C1000040C100003EC100003CC10000D0
:100030003AC1000038C1000036C1000034C10000E0
:1000400032C1000030C100002EC100002CC10000F0
:100050002AC1000028C1000026C100006AC50000B6
:1000600022C100000C94EF080C9425091CC100006B
:100070001AC1000018C1000016C1000014C1000020
:1000800012C1000010C100000EC100000CC1000030
:100090000C949A090C94D00906C1000004C1000018
:1000A00002C1000000C10000FEC00000FCC0000052
:1000B000FAC00000F8C00000F6C00000F4C0000064
:1000C000F2C00000F0C00000EEC00000ECC0000074
:1000D000EAC00000E8C00000E6C00000E4C0000084
:1000E000E2C00000E301C801CB01CE01D101D4017F
:1000F000D701DA01DD01E001B106B406A306A706C7
:10010000AD06EB06B806BC06C206C606CA06D00691
:10011000D406D806EB06DE06E206E60600000A0B69
:1001200002090C0D0E080703040100000000000086
:1001300000000000000000000000000000000000BF
:10014000000000000000000012111000000000007C
:10015000000000000000000000000000000000009F
:1001600000000102102020080810204010204080CC
:10017000020102010804020101020408102040806B
:1001800080402010080402018004020180402010F9
:100190000804020108040201010204081020408042
:1001A0000102040810204080050505050705080820
:1001B0000808020202020A0A0808040404040101F1
:1001C0000101010101010303030303030303040706
:1001D00007070C0C0C0C0C0C0C0C0202020206069D
:1001E0000606060606060B0B0B0B0B0B0B0B000093
:1001F00020002300260029002C002F0032000001DF
:10020000000003010601090100002200250028006A
:100210002B002E003100340002010000050108010E
:100220000B0100002100240027002A002D003000CF
:10023000330001010000040107010A0162025709AD
:10024000020A790211241FBECFEFD1E2DEBFCDBF7B
:1002500000E00CBF12E0A0E0B2E0E4EBFDE100E062
:100260000BBF02C007900D92A435B107D9F724E067
:10027000A4E5B2E001C01D92A731B207E1F712E098
:10028000C2E4D2E000E006C022970109FE010BBFE4
:100290000E946F0CCC33D10780E00807A9F70E94B9
:1002A000460A0C94C90EACCEDC01ED91FC91019094
:1002B000F081E02D199426E040E855E260E070E01E
:1002C00089ED92E02CD726E040E855E260E070E04E
:1002D00086E793E024D764EF71E080E090E0A2D459
:1002E00068EC70E08AEC92E00C949B0BCF93DF9368
:1002F0008091C902882381F08AEC92E00E943C0C34
:10030000709359026093580264E272E08AEC92E0C2
:100310000E94E90B1092C9028091580290915902F3
:10032000853F914009F4B7C08AE592E0DCD3209183
:10033000560230915702253B310524F010925702A6
:1003400010925602882309F457C0609156027091AA
:100350005702833279F4653B71053CF47093550282
:100360006093540286E793E09FDF10925702109249
:10037000560242C0992787FD9095A92FB92FFC01FD
:10038000F097EA30F10508F5EE58FF4F0C94690C30
:10039000C1E0D0E01AC0C2E0D0E017C0C3E0D0E0B6
:1003A00014C0C4E0D0E011C0C5E0D0E00EC0C6E08B
:1003B000D0E00BC0C7E0D0E008C0C8E0D0E005C086
:1003C000C9E0D0E002C0C0E0D0E0161617062CF05D
:1003D000D0935702C09356020FC06436710564F47F
:1003E0002AE0269FC001279F900D11248C0F9D1F8E
:1003F00090935702809356026EEF70E089ED92E081
:1004000053DF61E070E089ED92E04EDF6AE070E07A
:1004100080E090E007D469E172E089ED92E00E940B
:10042000A90A60915802709159024AE050E089EDA2
:1004300092E00E94570B6EEF70E089ED92E034DF9E
:1004400060EC70E089ED92E02FDF6AE070E080E020
:1004500090E0E8D360E272E089ED92E00E94A90AA0
:1004600060915402709155024AE050E089ED92E0AB
:100470000E94570B60915602709157024AE050E07B
:1004800089ED92E00E94570B65EA70E080E090E011
:10049000DF91CF91C7C36EEF70E089ED92E004DF8A
:1004A00061E070E089ED92E0FFDE6AE070E080E0FC
:1004B00090E0B8D365E272E089ED92E0DF91CF91F0
:1004C0000C94A90AEF920F9364E272E08AEC92E036
:1004D0000E94D40B83E0E82E04E026E032E049E0FD
:1004E00052E06DE072E08AE592E028D00F91EF9043
:1004F00008958AEC92E00C946D0BCF93DF93D1E0DA
:1005000089ED92E0FFD4892B71F089ED92E013D54B
:10051000C82F682F8AEC92E00E94290CCA3081F71C
:10052000D093C902EDCFDF91CF910895862F642F2C
:1005300053C4862F642F89C4862FBCC44F925F9208
:100540006F927F928F929F92AF92BF92CF92DF92E3
:10055000EF920F93CF93DF93EC014B013A015901D6
:100560000296E1D28DE392E0998388836E018CE15B
:10057000C80ED11C26018CE3480E511CC601D3D2F3
:1005800086E0C80ED11CC414D504C1F7FE01EE5993
:10059000FF4F718260823296B182A08232960083D0
:1005A0003196E08237979182808238968AE090E097
:1005B00091838083329684EF91E091838083339698
:1005C0001182108271971082118212821382C45993
:1005D000DF4F1882DF91CF910F91EF90DF90CF9096
:1005E000BF90AF909F908F907F906F905F904F9053
:1005F00008952F923F924F925F926F927F928F92C7
:100600009F92AF92BF92CF92DF92EF92FF920F93A1
:100610001F93CF93DF93CDB7DEB728970FB6F8942B
:10062000DEBF0FBECDBF98878F83F12C4C0186E6CD
:10063000880E911C0F8118850E591F4FD4018C9183
:10064000F816A0F4AF81B8858D919C91F801A08136
:10065000B181AF0DB11DFC012081318142E06C916F
:100660008F819885F9011995F394E8CF512CEF818A
:10067000F885E959FF4FFA83E9830F8118850C59F2
:100680001F4FC12CD12C7601C3948F8198858E5930
:100690009F4F9C838B83A981BA818C91581608F057
:1006A00088C0A52CB12CAF81B8858D919C91F801A3
:1006B000A081B181AA0DBB1DFC012081318141E0E7
:1006C0006C918F819885F9011995AF81B8858D91CD
:1006D0009C91F801A081B181AA0DBB1DFC01228172
:1006E000338140E06C918F819885F9011995D7018C
:1006F000C601052C04C0880F991FAA1FBB1F0A94AE
:10070000D2F79C011C0120943094412CD4018C918F
:10071000EF81F88540815181481648F5642C712C91
:10072000EB81FC81A081B181A60DB71DFA01448146
:1007300055816C918F8198852D833E83FA0119959F
:10074000660C771C2D813E81EF81F885E60DF71D43
:10075000892B29F480859185822B932B04C0808579
:10076000918582219321918780874394CFCFF8018F
:10077000A081B181AA0DBB1DFA012281338141E024
:100780006C918F819885F9011995AF81B8858D910C
:100790009C91F801A081B181AA0DBB1DFC012081B3
:1007A000318140E06C918F819885F90119955394BE
:1007B00072CF28960FB6F894DEBF0FBECDBFDF9183
:1007C000CF911F910F91FF90EF90DF90CF90BF904E
:1007D000AF909F908F907F906F905F904F903F90E1
:1007E0002F900895FC0180E090E0258D368D26172E
:1007F000370739F0019636968A309105B1F78FEFB9
:100800009FEF0895DC0126E0629FA00DB11D112429
:1008100090965C934E935F9721E091962C939197DD
:10082000FC01E459FF4F208131960190F081E02DC9
:10083000222331F0309749F0611107C0DC0102C07A
:10084000309719F05C968C9119940895CF92DF92AD
:10085000FF920F931F93CF93DF931F92CDB7DEB715
:100860006C01F62EFC0186E0689FE00DF11D11245D
:1008700011A2878D90A181309105E1F01CF4892BA4
:1008800051F042C08230910581F1039709F03CC0DC
:1008900040E050E02EC04423B9F141E050E0C601F1
:1008A000B1DF91D1F601E85AFF4F608371838283F3
:1008B00093832AC0498387D1F601E85AFF4F00810C
:1008C000118122813381601B710B820B930B729615
:1008D0000081118120E030E04981061717072807C1
:1008E000390718F442E050E004C041110DC043E064
:1008F00050E06F2DC6010F90DF91CF911F910F91A6
:10090000FF90DF90CF907ECF0F90DF91CF911F911E
:100910000F91FF90DF90CF9008952F923F924F92CA
:100920005F926F927F928F929F92AF92BF92CF927F
:10093000DF92EF92FF920F931F93CF93DF931F925B
:10094000CDB7DEB71C01FC014AE08FEF9FEF278D8A
:1009500030A1232B21F4148E968F858F11A2415044
:1009600036964111F4CF712C610126E6C20ED11CDE
:10097000510187E6A80EB11C4101A0E68A0E911C28
:1009800046E0442ED6018C91781608F053C0612CB5
:100990008101070D111D070D111D085F1F4FF50186
:1009A000E0806E1408F044C0F80140815181062CAB
:1009B00002C0569547950A94E2F741707E9C7001FB
:1009C0001124E60CF11CD401ED91FC91EE0DFF1DFC
:1009D0005080B701C101498305DF498197FD02C0FD
:1009E000682F1BC0019611F5442301F180E090E0CF
:1009F00060E070E0F101E80FF91F248D211110C0B3
:100A0000469EF001479EF00D1124E20DF31D548E19
:100A1000F68EE58E10A2178E41E0C10117DF06C0E9
:100A20006F5F7F4F06966A30710521F76394B7CFE9
:100A30007394A8CF20E030E080E0F101E20FF31FD3
:100A400091A1911181E02A5F3F4F2C333105A9F725
:100A50000F90DF91CF911F910F91FF90EF90DF905A
:100A6000CF90BF90AF909F908F907F906F905F904E
:100A70004F903F902F900895CF92DF92EF92FF9288
:100A80000F931F93CF93DF938C019DD0E801C45A3D
:100A9000DF4FC880D980EA80FB806C197D098E0900
:100AA0009F09F801E859FF4FC080D180E12CF12C5B
:100AB000C616D706E806F90658F4C8019ADDC8013B
:100AC0002CDF182F80D0688379838A839B8301C0B1
:100AD00010E0812FDF91CF911F910F91FF90EF9048
:100AE000DF90CF9008950F931F93CF93DF93EC0186
:100AF0008C0104591F4F81E0F8018083CE01BCDFD7
:100B0000882349F089A1882331F08F8D98A101971E
:100B100011F48C8D03C0F801108280E0DF91CF9139
:100B20001F910F910895FC01108214821382158287
:100B300008951F920F920FB60F9211242F933F9397
:100B40008F939F93AF93BF938091D1029091D202E4
:100B5000A091D302B091D4023091D00223E0230FB0
:100B60002D3720F40196A11DB11D05C026E8230FE5
:100B70000296A11DB11D2093D0028093D1029093C3
:100B8000D202A093D302B093D4028091D502909167
:100B9000D602A091D702B091D8020196A11DB11D35
:100BA0008093D5029093D602A093D702B093D80237
:100BB000BF91AF919F918F913F912F910F900FBE59
:100BC0000F901F9018952FB7F8946091D1027091F3
:100BD000D2028091D3029091D4022FBF08953FB7E3
:100BE000F8948091D5029091D602A091D702B0914D
:100BF000D80226B5A89B05C02F3F19F00196A11D6C
:100C0000B11D3FBF6627782F892F9A2F620F711D64
:100C1000811D911D42E0660F771F881F991F4A951D
:100C2000D1F70895CF92DF92EF92FF92CF93DF93A7
:100C30006B017C01D4DFEB01C114D104E104F104A8
:100C400079F024D6CCDF6C1B7D0B683E7340A0F39B
:100C500081E0C81AD108E108F108C851DC4FECCF97
:100C6000DF91CF91FF90EF90DF90CF90089578942F
:100C700084B5826084BD84B5816084BD85B58260A1
:100C800085BD85B5816085BDEEE6F0E0808181603F
:100C90008083E1E8F0E0108280818260808380813F
:100CA00081608083E0E8F0E0808181608083E1EB17
:100CB000F0E0808184608083E0EBF0E080818160FF
:100CC0008083E1E9F0E080818260808380818160BF
:100CD0008083E0E9F0E0808181608083E1EAF0E0F8
:100CE000808182608083808181608083E0EAF0E09F
:100CF000808181608083E1E2F1E080818260808395
:100D0000808181608083E0E2F1E080818160808386
:100D1000EAE7F0E080818460808380818260808364
:100D20008081816080838081806880831092C1008F
:100D3000089590E0FC013197E231F10508F04BC0D5
:100D4000E458FF4FC6C5809180008F7703C0809123
:100D500080008F7D80938000089580918000877F40
:100D6000F9CF84B58F7702C084B58F7D84BD089597
:100D70008091B0008F7703C08091B0008F7D809309
:100D8000B0000895809190008F7707C08091900007
:100D90008F7D03C080919000877F8093900008959D
:100DA0008091A0008F7707C08091A0008F7D03C045
:100DB0008091A000877F8093A000089580912001FA
:100DC0008F7707C0809120018F7D03C08091200123
:100DD000877F809320010895CF93DF9390E0FC01FB
:100DE000EE59FE4F2491FC01E855FE4F8491882373
:100DF00049F190E0880F991FFC01EE5DFD4FA59130
:100E0000B491885F9D4FFC01C591D4919FB761114A
:100E100008C0F8948C91209582238C93888182233A
:100E20000AC0623051F4F8948C91322F30958323AC
:100E30008C938881822B888304C0F8948C91822BB8
:100E40008C939FBFDF91CF9108950F931F93CF9302
:100E5000DF931F92CDB7DEB7282F30E0F901E45EB3
:100E6000FE4F8491F901EE59FE4F1491F901E855B6
:100E7000FE4F04910023C1F0882319F0698359DFE4
:100E80006981E02FF0E0EE0FFF1FE85FFD4FA591B5
:100E9000B4919FB7F8948C91611103C01095812390
:100EA00001C0812B8C939FBF0F90DF91CF911F9139
:100EB0000F910895CF93DF93282F30E0F901E45E7E
:100EC000FE4F8491F901EE59FE4FD491F901E85596
:100ED000FE4FC491CC2389F081112BDFEC2FF0E081
:100EE000EE0FFF1FE251FE4FA591B4912C912D23DF
:100EF00081E090E021F480E002C080E090E0DF91AA
:100F0000CF910895FC01818D228D90E0805C9F4FF0
:100F1000821B91098F7399270895FC01918D828D11
:100F2000981731F0828DE80FF11D858D90E00895BE
:100F30008FEF9FEF0895FC01918D828D981761F0DE
:100F4000828DDF01A80FB11D5D968C91928D9F5F00
:100F50009F73928F90E008958FEF9FEF08958EE436
:100F600099E0892B39F080E090E0892B19F096D137
:100F7000811124C089EF99E0892B39F08DE792E047
:100F8000892B19F036D281111CC080E090E0892BAA
:100F900041F080E090E0892B21F00E940000811157
:100FA00012C080E090E0892B99F080E090E0892BDE
:100FB00079F00E940000811109C008950E9400008C
:100FC000D9CF9BDAE2CF0E940000EBCF0C94000057
:100FD0000895FC01848DDF01A80FB11DA35ABF4FF6
:100FE0002C91848D90E001968F739927848FA68928
:100FF000B7892C93A089B1898C9180648C93938D4F
:10100000848D981306C00288F389E02D80818F7D3E
:1010100080830895CF93DF93EC01888D8823C1F0FE
:10102000EA89FB89808185FD05C0A889B9898C91F1
:1010300086FD0EC00FB607FCF5CF808185FFF2CF8D
:10104000A889B9898C9185FFEDCFCE01C2DFE8CFA9
:10105000DF91CF910895CF92DF92FF920F931F936C
:10106000CF93DF931F92CDB7DEB76C01DC015B96A7
:101070009C915B975C968C915C97981307C05096F7
:10108000ED91FC915197808185FD31C0F601038D72
:1010900010E00F5F1F4F0F731127F02EF601848DA4
:1010A000F81210C00FB607FCF9CFD6015096ED919B
:1010B000FC915197808185FFF1CFC601698389DF5B
:1010C0006981ECCF838DE80FF11DE35AFF4F6083F8
:1010D000D6015B960C935B975296ED91FC915397DA
:1010E00080818062808381E058968C930DC0D60108
:1010F0005696ED91FC91579760835096ED91FC9137
:10110000519780818064808381E090E00F90DF912F
:10111000CF911F910F91FF90DF90CF900895BF92D4
:10112000CF92DF92EF92FF92CF93DF93EC016A01AF
:101130007B01B22EE889F98982E08083411581EE36
:1011400058076105710599F060E079E08DE390E062
:10115000A70196019CD321503109410951095695A7
:10116000479537952795211580E1380790F0E88954
:10117000F989108260E874E88EE190E0A701960199
:1011800086D3215031094109510956954795379524
:101190002795EC85FD853083EE85FF852083188EAD
:1011A000EC89FD89B082EA89FB8980818061808336
:1011B000EA89FB89808188608083EA89FB89808154
:1011C00080688083EA89FB8980818F7D8083DF91BD
:1011D000CF91FF90EF90DF90CF90BF9008951F9236
:1011E0000F920FB60F9211240BB60F922F938F937D
:1011F0009F93EF93FF93E091E902F091EA028081DF
:10120000E091EF02F091F00282FD12C09081809196
:10121000F2028F5F8F732091F302821751F0E091F9
:10122000F202F0E0E752FD4F958F8093F20201C089
:101230008081FF91EF919F918F912F910F900BBE25
:101240000F900FBE0F901F9018951F920F920FB620
:101250000F9211240BB60F922F933F934F935F93EE
:101260006F937F938F939F93AF93BF93EF93FF936E
:1012700089ED92E0AEDEFF91EF91BF91AF919F912A
:101280008F917F916F915F914F913F912F910F902F
:101290000BBE0F900FBE0F901F90189589ED92E036
:1012A00031DE21E0892B09F420E0822F089510928D
:1012B000DC021092DB0288EE93E0A0E0B0E08093C5
:1012C000DD029093DE02A093DF02B093E00287E498
:1012D00092E09093DA028093D90285EC90E09093AB
:1012E000E6028093E50284EC90E09093E80280931C
:1012F000E70280EC90E09093EA028093E90281ECAF
:1013000090E09093EC028093EB0282EC90E090935B
:10131000EE028093ED0286EC90E09093F0028093D1
:10132000EF021092F2021092F3021092F402109265
:10133000F50208951F920F920FB60F9211240BB66B
:101340000F922F938F939F93EF93FF93E0918603D8
:10135000F09187038081E0918C03F0918D0382FDF1
:1013600012C0908180918F038F5F8F7320919003C3
:10137000821751F0E0918F03F0E0EA58FC4F958F0F
:1013800080938F0301C08081FF91EF919F918F9196
:101390002F910F900BBE0F900FBE0F901F901895BE
:1013A0001F920F920FB60F9211240BB60F922F932C
:1013B0003F934F935F936F937F938F939F93AF93DD
:1013C000BF93EF93FF9386E793E003DEFF91EF91E6
:1013D000BF91AF919F918F917F916F915F914F914D
:1013E0003F912F910F900BBE0F900FBE0F901F904B
:1013F000189586E793E086DD21E0892B09F420E04B
:10140000822F0895109279031092780388EE93E06A
:10141000A0E0B0E080937A0390937B03A0937C03D9
:10142000B0937D0387E492E09093770380937603F3
:101430008DEC90E090938303809382038CEC90E09A
:10144000909385038093840388EC90E090938703C6
:101450008093860389EC90E09093890380938803BE
:101460008AEC90E090938B0380938A038EEC90E05B
:1014700090938D0380938C0310928F0310929003AE
:10148000109291031092920308950895F0DBFDDF0E
:101490000E945B01CFEAD7E00E9476012097E1F33A
:1014A0005EDDFACFCF92DF92EF92FF920F931F9300
:1014B000CF93DF936C017A01EB01E60EF71E00E09B
:1014C00010E0CE15DF0561F06991D601ED91FC9138
:1014D0000190F081E02DC6011995080F191FF1CF79
:1014E000C801DF91CF911F910F91FF90EF90DF9096
:1014F000CF9008956115710581F0DB010D900020FA
:10150000E9F7AD0141505109461B570BDC01ED9144
:10151000FC910280F381E02D199480E090E0089521
:10152000DC01ED91FC910190F081E02D19940F9375
:101530001F93CF93DF93EC016DE0F2DF8C016AE043
:10154000CE01EEDF800F911FDF91CF911F910F91A0
:1015500008950F931F93CF93DF93EC01CBDF8C01A2
:10156000CE01E5DF800F911FDF91CF911F910F9189
:1015700008958F929F92AF92BF92CF92DF92EF9297
:10158000FF920F931F93CF93DF93CDB7DEB7A19751
:101590000FB6F894DEBF0FBECDBF7C01C42EE52F81
:1015A000CB01D22E19A221E02D1510F02AE0D22E67
:1015B0008E010F5D1F4F8D2C912CA12CB12C6C2D09
:1015C0007E2FA501940163D18C2DD29E8019112408
:1015D000015011098A3014F4805D01C0895CF80162
:1015E0008083211531054105510521F0C22EE32FDD
:1015F000CA01E5CFB801C7017DDFA1960FB6F89407
:10160000DEBF0FBECDBFDF91CF911F910F91FF9035
:10161000EF90DF90CF90BF90AF909F908F90089504
:10162000CF92DF92EF92FF920F931F93CF93DF93AE
:10163000EC016A017B012115310579F4E881F9811A
:101640000190F081E02D642FDF91CF911F910F91D8
:10165000FF90EF90DF90CF9019942A303105D9F4A4
:1016600077FF18C06DE25CDF8C0144275527BA0173
:101670004C195D096E097F092AE0CE017ADF800FDF
:10168000911FDF91CF911F910F91FF90EF90DF900D
:10169000CF9008952AE0B701A601CE01DF91CF9146
:1016A0001F910F91FF90EF90DF90CF9062CF0F933B
:1016B0001F93CF93DF93EC019A01AB01662757FD8F
:1016C0006095762FADDF8C01CE0131DF800F911F49
:1016D000DF91CF911F910F910895FC01808191813D
:1016E0009AC1CF93DF93EC0188819981009709F02B
:1016F00092D1198218821D821C821B821A82DF916C
:10170000CF9108950F931F93CF93DF93EC018B013B
:101710006F5F7F4F888199810DD2009731F0998357
:1017200088831B830A8381E001C080E0DF91CF9131
:101730001F910F910895CF93DF93EC0188819981D8
:10174000892B29F08A819B818617970758F4CE014F
:10175000D9DF882341F08C819D81892B19F4E881A0
:10176000F981108281E0DF91CF910895EF92FF928D
:101770000F931F93CF93DF93EC017B018A01BA0192
:10178000DADF811103C0CE01ACDF06C01D830C83FC
:10179000B70188819981E1D2CE01DF91CF911F916C
:1017A0000F91FF90EF900895FC0111821082138237
:1017B0001282158214826115710551F0FB010190AE
:1017C0000020E9F7AF0141505109461B570BCECF1E
:1017D0000895CF93DF93EC016115710559F0FB017A
:1017E00001900020E9F7AF0141505109461B570B0A
:1017F000BDDF01C076DFCE01DF91CF910895EF927A
:10180000FF920F931F93CF93DF93EC017B010C8129
:101810001D816115710511F480E014C04115510559
:1018200081F0040F151FB80186DF8823A9F32881F2
:1018300039818C819D81B701820F931F8ED21D83C8
:101840000C8381E0DF91CF911F910F91FF90EF907A
:101850000895CF93DF931F921F92CDB7DEB76983B0
:101860001A8241E050E0BE016F5F7F4FC8DF0F90EA
:101870000F90DF91CF910895FC01808191810097B5
:1018800009F03CC260E070E0CB0108950895A1E248
:101890001A2EAA1BBB1BFD010DC0AA1FBB1FEE1FEA
:1018A000FF1FA217B307E407F50720F0A21BB30B35
:1018B000E40BF50B661F771F881F991F1A9469F7B1
:1018C00060957095809590959B01AC01BD01CF010D
:1018D0000895EE0FFF1F0590F491E02D19940790E5
:1018E000F691E02D1994CF93DF938230910510F497
:1018F00082E090E0E0911504F091160420E030E0E1
:10190000A0E0B0E0309739F1408151814817590784
:10191000B8F04817590771F482819381109729F024
:1019200013969C938E9312972CC0909316048093D9
:10193000150427C02115310531F04217530718F05F
:10194000A901DB0101C0EF019A01BD01DF010280A5
:10195000F381E02DD7CF21153105F9F0281B390B84
:101960002430310580F48A819B816115710521F055
:10197000FB019383828304C0909316048093150423
:10198000FE01329644C0FE01E20FF31F8193919352
:1019900022503109398328833AC0209113043091B1
:1019A0001404232B41F4209102023091030230935E
:1019B0001404209313042091000230910102211598
:1019C000310541F42DB73EB7409104025091050214
:1019D000241B350BE0911304F0911404E217F30774
:1019E000A0F42E1B3F0B2817390778F0AC014E5F8F
:1019F0005F4F2417350748F04E0F5F1F50931404B4
:101A0000409313048193919302C0E0E0F0E0CF0192
:101A1000DF91CF910895CF93DF93009709F487C0AA
:101A2000FC01329713821282C0911504D0911604E2
:101A3000209781F420813181280F391F8091130470
:101A4000909114048217930779F5F0931404E093AE
:101A500013046DC0DE0120E030E0AE17BF0750F484
:101A600012964D915C9113979D014115510509F115
:101A7000DA01F3CFB383A28340815181840F951F94
:101A80008A179B0771F48D919C911197840F951F74
:101A900002969183808312968D919C9113979383E4
:101AA00082832115310529F4F0931604E09315047F
:101AB0003EC0D9011396FC93EE9312974D915D9120
:101AC000A40FB51FEA17FB0779F480819181840F79
:101AD000951F0296D90111969C938E9382819381D2
:101AE00013969C938E931297E0E0F0E08A819B819D
:101AF000009719F0FE01EC01F9CFCE010296288182
:101B00003981820F931F20911304309114042817F8
:101B1000390769F4309729F41092160410921504CD
:101B200002C013821282D0931404C0931304DF9175
:101B3000CF9108956F927F928F929F92AF92BF92B2
:101B4000CF92DF92EF92FF920F931F93CF93DF9389
:101B5000EC01CB01209779F4DF91CF911F910F9188
:101B6000FF90EF90DF90CF90BF90AF909F908F90BD
:101B70007F906F90B8CEFE01E60FF71F9E012250B6
:101B80003109E217F30708F4A8C0D9010D911C919F
:101B9000119706171707B0F00530110508F49BC020
:101BA000A801445051094617570708F494C0025041
:101BB0001109061B170B019311936D937C93CF01B1
:101BC0002ADF89C05B01A01AB10A4E01800E911E66
:101BD000A0911504B0911604612C712C60E070E0A6
:101BE000109709F449C0A815B905C9F5ED90FC9006
:101BF0001197670142E0C40ED11CCA14DB0478F1CE
:101C000047018A189B08640142E0C40ED11C129659
:101C1000BC9012971396AC91B5E0CB16D10440F06E
:101C2000B282A38391828082D9018D939C9309C053
:101C30000E5F1F4F0E0D1F1DF90111830083EB2D49
:101C4000FA2F6115710531F0DB011396FC93EE93C9
:101C5000129741C0F0931604E09315043CC06D91B7
:101C60007C9111976616770608F43B01BD01129628
:101C70000D90BC91A02DB4CF609113047091140409
:101C800068157905E9F468167906D0F440910002E8
:101C9000509101024115510541F44DB75EB7609175
:101CA000040270910502461B570BE417F507A8F4D0
:101CB000F0931404E0931304F901918380830BC023
:101CC00012DE7C01009749F0A801BE013DD0CE0193
:101CD000A2DEC70104C0CE0102C080E090E0DF9127
:101CE000CF911F910F91FF90EF90DF90CF90BF9019
:101CF000AF909F908F907F906F9008951F93FC01FD
:101D000099278827BC01E89411911032E9F3193022
:101D100010F01E30C8F31B3249F01D3241F46894B4
:101D200005C022D0610F711D811D911D11911053AD
:101D30001A30B8F33EF490958095709561957F4F79
:101D40008F4F9F4F1F910895FB01DC0102C001904E
:101D50000D9241505040D8F70895FB01DC010190ED
:101D60000D920020E1F70895592F482F372F262F85
:101D7000660F771F881F991F660F771F881F991F8F
:101D8000620F731F841F951F660F771F881F991F8F
:101D9000089512E0C2E4D2E000E005C022970109F4
:101DA000FE010BBF9CDDC434D10780E00807B1F70A
:041DB000F894FFCFD5
:101DB40000001704800008070605040302313233CB
:101DC4003435363738392A3023417475616C3A001A
:101DD4005265663A004572726F20646520436F6DE8
:101DE400756E69636163616F00000000009602997B
:101DF400029C02000000002B08520A82079B078DF8
:041E0400070A0800C1
:00000001FF
